:020000040800F2
:10000000C8070020050100083B1800082117000858
:100010003918000803080008611D000800000000EE
:100020000000000000000000000000003F18000871
:100030001D080008000000003D18000841180008D5
:100040001F0100081F0100081F0100081F01000810
:100050001F0100081F0100081F0100081F01000800
:100060001F0100081F0100081F0100081F010008F0
:100070001F0100081F0100080508000811080008FA
:100080001F0100081F0100081F0100081F010008D0
:100090001F0100081F0100081F0100081F010008C0
:1000A0001F0100081F0100081F0100081F010008B0
:1000B0001F0100081F0100081F0100081F010008A0
:1000C0001F0100081F0100081F0100081F01000890
:1000D0001F010008551D00081F0100081F0100082E
:1000E0001F0100081F0100081F010008DFF810D0E1
:1000F00000F05EFB0048004701260008AFF30080D7
:10010000C80700200648804706480047FEE7FEE78C
:10011000FEE7FEE7FEE7FEE7FEE7FEE7FEE7FEE7B7
:10012000A3180008ED000008202A04DB203A21FA79
:1001300002F00021704721FA02F3D040C2F1200200
:100140009140084319467047D2B201E000F8012BF4
:10015000491EFBD270470022F6E710B513460A4647
:1001600004461946FFF7F0FF204610BD80EA010261
:1001700010B502F00043400022D04A001FD0010E0B
:1001800001EB1261C0F35600C2F3560240F40000C6
:1001900042F40002A0FB022000047F39140400D0C6
:1001A000401C50EA124001D44000491EC2B20C0665
:1001B00004EBD010401C4008802A02D003E000204D
:1001C00010BD20F00100002900DA0020184310BD06
:1001D00030B480EA010202F0004530F0004221F024
:1001E000004013D090B1C30DD40DC2F31601C0F37B
:1001F0001600E41A41F4000140F400027D349142FB
:1002000001D3641C00E04900002C02DA30BC00205D
:1002100070474FF400000023914201D3891A034331
:1002200040084FEA4101F7D151B1914202D14FF05C
:10023000004105E002D24FF0010101E06FF0010141
:1002400003EBC450284430BC00F01DBA2DE9FE4F2A
:10025000804681EA0300C00F0C46009021F0004167
:1002600023F00045B8EB0200A94105D240462146E3
:1002700090461C460B46024623F00040104347D0F0
:10028000270DC7F30A00C3F30A510290401A0190E8
:1002900040286BDAC3F3130040F4801B00989246A9
:1002A00020B10023D2EB030A63EB0B0B01985946F4
:1002B000C0F14002504600F0C5F906460D465046D2
:1002C0005946019A00F0CDF910EB08006141002475
:1002D00087EA115284EAE7731A4340D0009A62B366
:1002E000019A012A4FEA075215DC001B61EB02015B
:1002F0004FF0004202EA0752CDE90042001C41F5EE
:10030000801132462B4600F004FA03B0BDE8F08FAE
:1003100040462146F9E7001B61EB0201001C41F554
:10032000801300185B412018A2F5001747EB03016A
:1003300040EAD570B6196D4111E06D084FEA3606F6
:1003400045EAC0754FEA0752001B61EB0201001C31
:1003500041F5801149084FEA3000001951413246F9
:100360002B4603B0BDE8F04F00F0C4B9009801225D
:1003700040000023D0EB020263EBE07300982146BB
:100380004FEAE074B8EB000061EB0401E9E783F0A9
:1003900000435BE781F0004158E72DE9FE4F81EA19
:1003A000030404F0004421F0004100944FF0000BDE
:1003B00023F0004350EA01045ED052EA03045BD00C
:1003C000C3F30A54C1F30A552C44A4F2F334019444
:1003D000A0FB0254C1F3130141F48011C3F31303D2
:1003E00043F4801301FB024400FB034E840A970A86
:1003F00044EA815447EA8357A4FB076802958D0AB3
:1004000005FB07854FEA932C04FB0C542705029D3E
:100410004FEA065847EA1637B5EB08056EEB070CAE
:10042000870E920E47EA811742EA8312A7FB020168
:10043000B6EB0B0164EB00042B0D43EA0C335E18A2
:1004400044EB1C50DA465146E7FB0201C5F31304A6
:100450004FEA0B3343EA14534FEA0432019C43EA58
:100460000603A4F10C040294009CCDE900B400F052
:1004700050F903B0BDE8F08F00200146F9E72DE9FF
:10048000F04D81EA030404F0004B21F000451446CE
:100490004FF0000A23F0004150EA050220D054EA50
:1004A00001021DD0C5F30A570246C5F31303C1F379
:1004B0001300C1F30A5640F4801543F48013A7EBF0
:1004C0000608101BD64608F2FD3873EB050002D370
:1004D00008F1010801E092185B41B8F1000F03DA5E
:1004E00000200146BDE8F08D00204FF48011064643
:1004F00084460EE0171B73EB050705D3121B63EB55
:10050000050306434CEA010C49084FEA30009218F3
:100510005B4150EA0107EDD152EA030012D082EAB2
:10052000040083EA0501084305D0101BAB4106D245
:100530000122002306E000224FF0004302E06FF0AA
:10054000010253101AEB06004CEB085110EB0A00A5
:1005500041EB0B01BDE8F04D00F0CCB820F00040BD
:10056000C10DC0F3160040F400007F2901DA00201D
:100570007047962903DCC1F19601C840704796394F
:100580008840704700F0004230F000400AD0C10DB2
:1005900001F56071C0F3160042EA0151C20840073C
:1005A00011437047002001467047000030B5041E1B
:1005B00071F1000404DB4FF00044404264EB0101A0
:1005C000141E73F1000405DB1C464FF00043524239
:1005D00063EB04038B4208BF824230BD30B5041E7A
:1005E00071F1000404DB4FF00044404264EB010170
:1005F000141E73F1000405DB1C464FF00043524209
:1006000063EB0403994208BF904230BD01F0004300
:1006100030B421F0004150EA010206D00A0DA2F5E3
:100620006072C1F31301002A02DC30BC0020704765
:10063000440F44EAC104C100E01830BC00EBC250D2
:1006400000F021B8202A04DB203A00FA02F1002051
:1006500070479140C2F1200320FA03F31943904000
:100660007047202A06DBCB17203A41FA02F043EA12
:10067000E07306E041FA02F3D040C2F1200291405B
:100680000843194670470029A8BF7047401C49001D
:1006900008BF20F00100704710B4B0FA80FC00FAE7
:1006A0000CF050EA010404BF10BC704749B1CCF112
:1006B000200421FA04F411FA0CF118BF012121439E
:1006C0000843A3EB0C01CB1D4FEA00614FEA102059
:1006D00042BF002010BC704700EBC35010440029FB
:1006E000A4BF10BC7047401C490008BF20F00100A7
:1006F00010BC704710B5141E73F1000408DA401CDA
:1007000041F1000192185B411A4301D120F0010030
:1007100010BD2DE9F04D92469B4611B1B1FA81F220
:1007200002E0B0FA80F220329046FFF78BFF0446D9
:100730000F4640EA0A0041EA0B0153465A46084375
:1007400013D0114653EA010019D0C8F140025046B7
:10075000FFF7EAFC05460E46504659464246FFF76B
:1007600071FF084305D0012004E020463946BDE86A
:10077000F08D0020054346EAE0762C4337430A9883
:100780006305E40AA0EB08000022FD0A44EA47548E
:100790000A3002D500200146E9E701051019694138
:1007A000DDE9084500196941BDE8F04DA2E7000008
:1007B000064C074D06E0E06840F0010394E80700AE
:1007C00098471034AC42F6D3FFF794FCE0290008B8
:1007D000002A000870B521F0004303430CD0C1F398
:1007E0000A550024D5EB040564EB0403D617AD1AB3
:1007F000B34102DB0020014670BD201841EB0251DD
:1008000070BDFEE7014800F07BB80000F800002052
:10081000014800F075B80000B4000020704772B6BF
:10082000FEE710B590F821100022022905D004211E
:10083000816380F82020012010BD01680B6823F03F
:100840000E030B6001680B6823F001030B6090F846
:100850004030C46B012101FA03F3636080F821107A
:1008600080F82020104610BD10B590F8211000240B
:10087000022903D00421816301243DE001680A6854
:1008800022F00E020A6001680A6822F001020A6082
:100890001A4A0168914201D1012121E0174A14321C
:1008A000914201D110211BE0144A2832914201D11A
:1008B000891515E0114A3C32914201D189140FE0AB
:1008C0000E4A5032914202D14FF4803108E00B4A77
:1008D0006432914202D14FF4801101E04FF08071F7
:1008E000064A083A5160012180F82110002180F861
:1008F0002010416B01B18847204610BD080002401E
:100900002DE9F05FC16B0C6801680B68D0F840C03E
:10091000042202FA0CF2494DDFF824A1494E4A4F55
:10092000DFF828B1DFF828E122422CD05A072AD577
:100930000A68920603D40A6822F004020A60016879
:10094000A94201D1042219E0514501D1402215E00C
:10095000B14202D14FF4806210E0B94202D14FF4AB
:1009600080420BE0594502D14FF4802206E07145E8
:1009700002D14FF4800201E04FF080622F49083924
:100980004A60C16A3BE04FF0020808FA0CF818EA26
:10099000040F4FF000094FF0010235D05FEA837871
:1009A00032D50B689B0605D40B6823F00A030B6055
:1009B00080F821200168A94201D1022219E05145A5
:1009C00001D1202215E0B14202D14FF4007210E0B3
:1009D000B94202D14FF400520BE0594502D14FF415
:1009E000003206E0714502D14FF4001201E04FF0F1
:1009F0000072124908394A6080F82090816A002903
:100A00001AD0BDE8F05F0847082505FA0CF5254225
:100A100012D01B0710D50B6823F00E030B6090F863
:100A20004010C36B02FA01F15960826380F8212003
:100A300080F82090016BE2E7BDE8F09F08000240DB
:100A40001C000240300002404400024058000240B6
:100A50006C00024070B5044600F008F90546601CC1
:100A600002D004480078044400F000F9401BA04282
:100A7000FAD370BD240000202DE9F84FDFF8B891BB
:100A8000002409F1040A0AF1040B23460F270BF195
:100A9000040EC9E00125A5402A40AA427DD1674E37
:100AA000D1F804C0ACEB0608B44532D014DCBCF17C
:100AB000030F3AD009DCBCF1000F2AD0BCF1010FC2
:100AC0001CD0BCF1020F31D11DE0BCF1110F17D0C9
:100AD000BCF1120F2AD119E0B8F5881F19D006DC35
:100AE000B8F5803F15D0B8F5801F1FD111E0B8F5DB
:100AF000001F0ED0B8F5041F18D10AE0CB6815E02E
:100B0000CB681B1D12E0CB6808330FE0CB680C33B9
:100B10000CE08B682BB1012B4FF0080303D045612B
:100B200004E0042302E0056100E00023FF2A01D86D
:100B3000064601E000F104064FEA840501D9A5F15B
:100B40002005D6F8008007FA05FC28EA0C0803FA0D
:100B500005F548EA0508C6F800804D68ED0062D545
:100B6000374DAE6946F00106AE61AD6924F003066B
:100B700005F001050095334D06EB050CDCF8085037
:100B8000A607360F07FA06F825EA0805DFF8B88049
:100B9000404503D14FF0000817E044E0DFF8AC8097
:100BA000404502D14FF001080FE0DFF8A480404536
:100BB00002D14FF0020808E0DFF89880404502D1EA
:100BC0004FF0030801E04FF0040808FA06F848EA7D
:100BD0000508CCF808804D68D9F80060ED034D4653
:100BE00001D5164300E096432E604D68DAF80060A8
:100BF000AD03554601D5164300E096432E604D687F
:100C0000DBF80060ED025D4601D5164300E0964337
:100C10002E604D68DEF80060AD02754601D51643C2
:100C200000E096432E60641C0D682A46E5407FF480
:100C300031AFBDE8F88F0000000401400000111042
:100C4000001002400000014000080140000C01407B
:100C500000100140001401408068084000D00120CD
:100C600070470AB1016170470904FBE701488068D9
:100C70007047000024000020024881680278114477
:100C80008160704724000020074810B5016841F0DA
:100C900010010160032000F075F8002000F006F854
:100CA00000F024F8002010BD0020024070B50D4D6A
:100CB00004464FF47A712878B1FBF0F00A490968CC
:100CC000B1FBF0F000F0ECFA48B9102C07D200228A
:100CD0002146501E00F036F800206C6070BD0120E7
:100CE00070BD000024000020300000200C4808B532
:100CF000816941F001018161816901F00101009187
:100D0000C16941F08051C161C06900F0805000901C
:100D10000448416821F0E06141F00071416008BD84
:100D20000010024000000140002809DB00F01F0213
:100D3000012191404009800000F1E020C0F800113D
:100D400070470000F0B40E4B1B680C46C3F302233F
:100D5000C3F10705042D00D90425191D072901D267
:100D6000002300E0DB1E012606FA05F1491E2140A2
:100D700099409E40761E16403143F0BC01F005B804
:100D80000CED00E0064900F0070208684FF6FF038B
:100D9000184040EA0220034A1043086070470000F0
:100DA0000CED00E00000FA052DE9F0470F460500C4
:100DB00061D0434E306800F00700B84209D2306875
:100DC00020F0070038433060306800F00700B84278
:100DD00051D128683B4C810712D5400703D5606884
:100DE00040F4E06060602878000703D5606840F454
:100DF000605060606068A96820F0F000084360609F
:100E00002878C00728D06868012810D021680228F7
:100E100010D0890700292EDA616821F0030101430F
:100E20006160FFF723FF804641F288390DE02168B9
:100E30008903EFE78901EDE7FFF718FFA0EB080151
:100E4000494502D90320BDE8F0876068696800F071
:100E50000C00B0EB810FEFD1306800F00700B84212
:100E60000BD9306820F0070038433060306800F05C
:100E70000700B84201D00120E5E72878400705D5F2
:100E80006068E96820F4E060084360602878000743
:100E900006D56068296920F4605040EAC1006060AE
:100EA00000F038F86168084AC1F30311515CC8408A
:100EB0000649086006480068FFF7F8FE0020C2E710
:100EC00000200240001002402529000830000020C8
:100ED000280000200448054900684968044AC1F315
:100EE0000221515CC84070473000002000100240D1
:100EF000352900080448054900684968044AC1F3D7
:100F0000C221515CC84070473000002000100240F0
:100F10003529000812A185B00FC98DE80F0014A073
:100F2000144A006804905168134801F00C03042B24
:100F300010D0082B0ED1C1F38343C9031DF8030061
:100F40000AD5516804AAC1F34041515C0A4A504392
:100F5000B0FBF1F005B0704708494843FAE70000DC
:100F600002030405060708090A0B0C0D0E0F1010EA
:100F7000010200000010024000127A0000093D004A
:100F80002DE9F84F040070D02078C04DC00749D03B
:100F90006868C0F38100012807D06868C0F3810049
:100FA000022809D16868C00306D52868800339D5AE
:100FB00060680028E7D035E06068B0F5803F0BD06E
:100FC00010B1B0F5A02F11D0286820F4803028602F
:100FD000286820F4802002E0286840F480302860EF
:100FE000606890B1FFF742FE06460AE0286840F4C8
:100FF00080202860F0E700BFFFF738FE801B6428E0
:1010000073D828688003F7D50CE0FFF72FFE06465B
:1010100005E000BFFFF72AFE801B6428F0D828688F
:101020008003F7D420789A4E80074FF001094FF0E3
:10103000000839D5686810F00C0F07D06868C0F355
:101040008100022809D16868C00306D42868800797
:1010500014D52069012808D110E02069B0B1C6F884
:101060000090FFF703FE074605E00AE1FFF7FEFDEB
:10107000C01B0228C4D828688007F7D52868616992
:1010800020F0F80040EAC10028600DE0C6F80080BA
:10109000FFF7ECFD074604E0FFF7E8FDC01B022860
:1010A00023D828688007F7D4207800072CD5794802
:1010B000A169D9B1C0F80090FFF7D8FD074604E058
:1010C000FFF7D4FDC01B02280FD8686A8007F7D548
:1010D00071484FF4FA510068B0FBF1F0009000BF86
:1010E0000098411E0091FAD20EE080E0C0F8008026
:1010F000FFF7BCFD074604E0FFF7B8FDC01B022860
:1011000075D8686A8007F7D42078400760D5E86909
:101110000027C00008D4E86940F08050E861E86921
:10112000012700F0805000905C480168C90513D485
:101130000168834641F480710160FFF797FD8246A4
:1011400006E000BFFFF792FDA0EB0A0064284ED82E
:10115000DBF80000C005F5D5E06801280AD008B129
:10116000052813D0286A20F001002862286A20F0A0
:10117000040002E0286A40F001002862E06841F2C1
:10118000883B98B1FFF772FD82460BE0286A40F079
:1011900004002862EEE700BFFFF768FDA0EB0A013C
:1011A00059455AD8286A8007F6D50CE0FFF75EFD4E
:1011B000824605E0FFF75AFDA0EB0A0159454CD8DD
:1011C000286A8007F6D41FB1E86920F08050E861F2
:1011D000E06988B36968C1F38101022944D002281B
:1011E000C6F8608004D0FFF741FD044638E034E0E3
:1011F000FFF73CFD074604E0FFF738FDC01B02285F
:101200002BD828688001F7D4206AB0F5803F05D13B
:101210006868A16820F4003008436860D4E90801D8
:101220000843696821F4741108436860C6F8609047
:10123000FFF71CFD044606E025E000BFFFF716FDA2
:10124000001B022809D828688001F7D51BE000BFE1
:10125000FFF70CFD001B022802D90320BDE8F88F20
:1012600028688001F4D40EE00128F7D06868226A6B
:1012700000F48031914204D1616A00F47010884218
:1012800001D00120EAE70020E8E70000001002405A
:1012900000004242800442423000002000700040C2
:1012A00010B5401EB0F1807F01D3012010BD4FF07A
:1012B000E02460610F21601700F067FD0020A0614D
:1012C00007202061002010BD70477047F8B5026804
:1012D00004461068D168536910F00F0F4FF00005F5
:1012E00053D003F0010601F4907737435FD0C20773
:1012F00005D0CA0503D5226C42F0010222644207E0
:1013000005D5DA0703D0226C42F00202226482077C
:1013100005D5DA0703D0226C42F0040222640207EA
:1013200007D501F02002324303D0226C42F00802BC
:101330002264226C002A34D0800604D5880602D5A7
:10134000204600F002FC20684069216CC0F3801048
:10135000090700D430B3204600F0DFFB2068416964
:1013600049061BD5416921F040014161A06BA8B13C
:1013700058494163A06BFFF777FA002811D0A06BA2
:10138000416B01B0BDE8F040084783060FD58B06DE
:101390000DD52046BDE8F84000F0D7BB2046FFF74A
:1013A00094FFF8BD2046FFF790FF2564F8BD266B3B
:1013B0002023012E52D1C60650D5CE064ED5106838
:1013C00050680090506940062AD5A16B08684068B3
:1013D0000004000CEAD0A68D8642E7D9E085886932
:1013E000202818D0D06820F48070D060206841692F
:1013F00021F0010141612068416921F04001416112
:1014000084F83E3025632068C16821F01001C16076
:10141000A06BFFF706FAA08DE18D401A81B219E0AA
:10142000A08DE18D401A81B2E08D0028BED0002948
:10143000BCD0D06820F49070D0602068426922F05F
:101440000102426184F83E3025632068C26822F0C0
:101450001002C2602046FFF737FFF8BD05062BD506
:101460000D0629D594F83D002128F6D1A068B0F5E5
:10147000805F01D12069B0B1206A411C21622168DE
:1014800000784860E08C401E0004000CE084E4D149
:101490002068C16821F08001C1602068C16841F006
:1014A0004001C160F8BD206A0088C0F308005060A8
:1014B000206A801C2062E5E74006F3D54806F1D596
:1014C000D168204621F04001D16084F83D3000F021
:1014D00026F9F8BD0B1B000870B5040004D094F881
:1014E0003D00002510B106E0012070BD84F83C509D
:1014F000204600F023F8242084F83D002068C168CD
:1015000021F40051C160204600F07AFB2068016997
:1015100021F4904101612068416921F02A01416173
:101520002068C16841F40051C1602564202084F81E
:101530003D0084F83E00002070BD000070B586B00C
:1015400000240094019402940394234E03682349D9
:1015500002200322224DB34219D18B6943F4804308
:101560008B618B6903F4804304938B6943F004031C
:101570008B618969039201F0040104910102CDE9B4
:10158000001069462846FFF777FA28151BE0154E2C
:10159000B3421FD1CB6943F40033CB61CB6903F471
:1015A000003304938B6943F004038B6189690392D0
:1015B00001F0040104910421CDE900106946284698
:1015C000FFF75AFA0820CDE900046946284602943C
:1015D000FFF752FA06B070BD00380140001002401B
:1015E000000801400044004090F83E30202B0ED10E
:1015F00059B152B190F83C30012B08D0012380F84A
:101600003C300023036300F057BB012070470220E9
:1016100070470000124B10B51878401C18701878ED
:10162000104C192814D3A01D00F016FE986004F188
:101630000A0000F011FED86004F10E0000F00CFE6C
:10164000186104F1120000F007FE586100201870C4
:1016500018782118BDE8104001220348FFF7C4BFE5
:1016600000000020400000203C0100202DE9F8434C
:10167000044690F83D001F4616460D4620284CD1E2
:10168000C5B1BEB194F83C00012846D0012084F8D1
:101690003C004FF00008C4F84080212084F83D0051
:1016A000FFF7E4FAA6848146E684A068B0F5805F7F
:1016B00003D004E00120BDE8F883206928B12E465C
:1016C0005FF0000584F83C800EE00026FAE78021F8
:1016D000204600F00CFBA0B9AEB116F8010B216852
:1016E0004860E08C401EE084E08C4B464FF00002E6
:1016F00000970028EBD14FF04001204600F0F7FAA8
:1017000030B10320D7E735F8020BC0F30800E6E755
:10171000202084F83D000020CDE70220CBE7704771
:10172000FEE700002DE9F04186B000242048009437
:10173000019402940394816941F0200181618169DF
:1017400001F020010491816941F004018161816906
:1017500001F004010491816941F00801816180690F
:10176000144F00F008000490002263213846FFF770
:1017700078FADFF84480002203214046FFF771FA2F
:10178000632011250226CDE90005CDE90246694610
:101790003846FFF771F90320CDE90005CDE902468F
:1017A00069464046FFF768F906B0BDE8F0810000E1
:1017B0000010024000080140000C01400F4810B525
:1017C0000D4901604FF416514160002181600C22E7
:1017D000C160C0E904128161C161FFF77DFE08B1FB
:1017E000FFF71DF8002211462520FFF7ABFABDE8F0
:1017F00010402520FFF798BA003801403C01002036
:101800000C4810B50A4901604FF4E13141600021F4
:1018100081600C22C160C0E904128161C161FFF7DF
:101820005BFE002803D0BDE81040FEF7F8BF10BDF6
:101830000044004080010020FEE7FEE7704770474B
:10184000FFF71ABA30B58FB028216846FEF783FC3F
:1018500014210AA8FEF77FFC01210804CDE900103D
:101860000024029402250491CDE907504FF4E010C2
:1018700009906846FFF784FB08B172B6FEE70F20B7
:10188000CDE90A054FF48060CDE90C4002210AA899
:101890000E94FFF789FA002801D072B6FEE70FB068
:1018A00030BD70472DE9F04115461C460E460746EF
:1018B0000022FFF7D6F9052000F00EFD214628464C
:1018C000FFF7CAF90028F9D1012231463846FFF75F
:1018D000C8F9022000F000FD31463846BDE8F0416D
:1018E0000022FFF7BEB900002DE9F84F9846DDE968
:1018F0000A6791468A46834600F0CFF8C0200090E0
:1019000043464A465146584600F0A0F843464A46E8
:1019100051465846FFF7C6FF0024124D12E0012C35
:101920001BD0305D285C009043464A4651465846DD
:1019300000F08CF843464A4651465846FFF7B2FF3E
:10194000641CE4B2BC42EAD301B043464A46514665
:101950005846BDE8F04F00F0B5B87078285C40F00C
:101960008000E0E7182900082DE9F84F9846DDE9E6
:101970000A7591468A46834600F08FF8C020009091
:1019800043464A465146584600F060F843464A46A8
:1019900051465846FFF786FF00240F4E10E0385D91
:1019A00043464A46305C00905146584600F04EF897
:1019B00043464A4651465846FFF774FF641CE4B25A
:1019C000AC42ECD301B043464A4651465846BDE8C6
:1019D000F04F00F077B8000018290008F8B51C4651
:1019E00015460E46074600F058F840200090234662
:1019F0002A463146384600F029F823462A46314621
:101A00003846FFF74FFF23462A463146384600F056
:101A100059F823462A463146384600F03EF88A20D7
:101A2000009023462A463146384600F00FF82346F8
:101A30002A4631463846FFF735FF01B023462A468D
:101A400031463846BDE8F04000F03CB82DE9F0479B
:101A50001E46089D174688468146002400224146BE
:101A60004846FFF7FEF8E80701D0012200E0002217
:101A700031463846FFF7F5F8052000F02DFC6D08DB
:101A8000012241464846FFF7ECF8052000F024FC0F
:101A9000641C082CE2DBBDE8F08770B515461C46D7
:101AA0000122FFF7DEF8012221462846FFF7D9F888
:101AB000022000F011FC21462846BDE870400022BB
:101AC000FFF7CFB82DE9F04117461E460C460546F4
:101AD0000022FFF7C6F8022000F0FEFB002231468C
:101AE0003846FFF7BEF8022000F0F6FB012221463F
:101AF0002846FFF7B6F8022000F0EEFB31463846E4
:101B0000BDE8F0410122FFF7ACB810B5406A0021F2
:101B1000C185C184FFF7D9FB10BD0168CA6822F4F2
:101B20009072CA6001684A6922F001024A61016B41
:101B3000012904D10168CA6822F01002CA6020217C
:101B400080F83E1000210163704708B590F83E1000
:101B5000222901D0022008BD82684FF480539A42A6
:101B600001D1016921B1816A9A421BD04AB10AE0D0
:101B70000268816A5268C2F308020A80816A891C7D
:101B800008E0026972B10268526802F07F020A70CE
:101B9000816A491C8162C18D491E0904090CC185F5
:101BA00003D019E002685268F1E70168CA6822F0C0
:101BB0002002CA600168CA6822F48072CA600168A3
:101BC0004A6922F001024A61202180F83E10016B2F
:101BD000012903D0FFF71EFD002008BD002101638D
:101BE0000168CA6822F01002CA6001680A68D20659
:101BF00002D50A6849680091818DFFF765FBEBE724
:101C000070B5044600680169E26821F4405111434F
:101C100001612169A0680843616908432168CA68B5
:101C200041F20C639A430243CA6020684169A26989
:101C300021F44071114341611E492068884202D15C
:101C4000FFF758F901E0FFF745F900EBC00101EBA0
:101C50000012606864218000B2FBF0F3B3FBF1F383
:101C60006FF018067343B2FBF0F5B2FBF0F605EB2C
:101C70008305322303EB0515B5FBF1F5B6FBF1F651
:101C800005F0F00505EB0615B2FBF0F6B2FBF0F03F
:101C9000B0FBF1F06FF01802504306EB800003EB4D
:101CA0000010B0FBF1F0216800F00F0028448860BC
:101CB00070BD00000038014081628285C28500212C
:101CC0000164222280F83E2080F83C100168CA6836
:101CD00042F48072CA6001684A6942F001024A61B6
:101CE0000068C16841F02001C160002070472DE903
:101CF000F041984617460E460446069D1DE0681CB6
:101D00001BD02DB1FEF7B2FFA0EB0800A84214D9FA
:101D10002068C16821F4D071C1602068416921F058
:101D200001014161202084F83D0084F83E0000203C
:101D300084F83C000320BDE8F0812068006836EAA2
:101D4000000004D00020B842D9D00020F3E70120E1
:101D5000F9E700000148FFF7B9BA00003C01002094
:101D6000FEE7490050EAC12018BF04204A0D18BF01
:101D700040F0010040F2FF72B2EB515F08BF40F04B
:101D80000200012808BF052070470907090E002836
:101D900004DB00F1E02080F80014704700F00F0031
:101DA00000F1E02080F8141D70472DE9F0414F1E2E
:101DB00000EBC7010446D1E9000115461E4637F085
:101DC00006020DD02A463346FEF7E7FA7F1E04EBE3
:101DD000C703D3E90023FEF739FA37F00602F1D141
:101DE000022F25D0042F13D0062F18BFBDE8F08195
:101DF0002A463346FEF7D1FAD4E90A23FEF726FA3B
:101E00002A463346FEF7C9FAD4E90823FEF71EFA3C
:101E10002A463346FEF7C1FAD4E90623FEF716FA3E
:101E20002A463346FEF7B9FAD4E90423FEF70EFA40
:101E30002A463346FEF7B1FAD4E90223FEF706FA42
:101E40002A463346FEF7A9FAD4E90023BDE8F0415B
:101E5000FEF7FCB90122FEF7BDBCFEF7F7B90000A2
:101E6000024A00201107FEF7B5BC000001FDFFFF8C
:101E700002E008C8121F08C1002AFAD17047704753
:101E8000002001E001C1121F002AFBD170470000B1
:101E900001490860704700003C0000202DE9F84F20
:101EA00004460D4621F0004000917349814211DC47
:101EB0007249884201DC06D12CB120462946BDE892
:101EC000F84FFFF7C7BF6E48002DCCBF6D496E4974
:101ED000BDE8F88F6D49814211DD6D498142D8BF5F
:101EE0004FF0FF366DDD20462946FFF73AFF042804
:101EF00008BFFFF7B5FF20462946BDE8F88F6549C2
:101F0000654F25F00045814233DD6449814219DD8A
:101F1000002632464FF0804320462946FEF796F9C8
:101F200080468A46012220462946FEF753FC0022BD
:101F30003B46FEF72CFA42465346FEF7A0FA04460B
:101F40000D463EE001260022BA463B462046294681
:101F5000FEF77CF980460F4600225346204629466C
:101F6000FEF715FA42463B46FEF789FA04460D464F
:101F700027E04B4981421BDDDFF828A10226002221
:101F8000534620462946FEF708FA00223B46FEF754
:101F90005DF980460F460022534620462946FEF74B
:101FA000F6F942463B46FEF76AFA04460D4608E05B
:101FB000032622462B4600203B49FEF760FA0446E2
:101FC0000D4622462B4610461946FEF7E6F98B468B
:101FD000824602460B46FEF7E0F9074602463348C2
:101FE00088460B4606217844FFF7DFFE52465B46E3
:101FF000FEF7D3F982462E488B463A4643460521E2
:102000007844FFF7D2FE3A464346FEF7C6F9024649
:102010000B46002E504659460CDAFEF717F92246B9
:102020002B46FEF7BAF901B022462B46BDE8F04F29
:10203000FEF7B0B9FEF70AF922462B46FEF7ADF9D6
:102040001C4A7A4402EBC603D3E90023FEF79FF94A
:1020500022462B46FEF79BF9174A7A4402EBC60349
:10206000D3E90023FEF796F9009A002AB8BF81F061
:102070000041BDE8F88F0000000010440000F07F30
:10208000182D4454FB21F93FFB21F9BF0000DC3F30
:102090000000203E0000F33F0000F03F0000E63F5C
:1020A000008003400000F83F0000F0BFBE090000C0
:1020B0007C0900001A090000E20800002DE9F04D3B
:1020C0009446CCF1000423F000464CEA0404594F36
:1020D00046EAD4749A46884621F00042BC4206D8AB
:1020E000454240EA050442EAD474BC4204D9BDE842
:1020F000F04D6246FFF7B1BEAAF14055A5F17F65EC
:1021000055EA0C040BD0022404EAAA744A4DDFF805
:102110002CE144EAD87452EA000B04D00CE0BDE88C
:10212000F04DFFF7BBBE002C14BF012CBDE8F08DB5
:10213000022C30D0032C32D056EA0C0B0AD0BE420F
:1021400020D1BA4209D126F0804622F0804233469F
:10215000114617E000291ADB25E0DFF8E4B0FB4464
:10216000002C04BFDBE90001BDE8F08D012C02BFAB
:10217000DBE9000181F00041BDE8F08D022C0AD0BE
:10218000032C0CD0BA4212D1B8F1000F0BDA2A4856
:102190002C49BDE8F08D28462B49BDE8F08D284636
:1021A0007146BDE8F08D24482849BDE8F08D921BAA
:1021B00012153C2AC4BF204F244E10DCBAF1000F88
:1021C000BEBF12F13C0F00273E4608DB6246FEF719
:1021D00056F921F00041FFF761FE07460E4694B123
:1021E000012C08BF86F000460DD0194A194B022C6D
:1021F0003846314615D0FEF7CAF82A46BDE8F04DFC
:10220000114BFEF7C4B80022134638463146FEF79C
:10221000CDF904BF0220FFF73BFE38463146BDE84A
:10222000F08DFEF7B4F82A46BDE8F04D064BFEF7F8
:10223000B1B800000000F07F182D4454FB2109C004
:1022400076080000FB21F9BFFB210940FB21F93F83
:10225000075C143326A6A13C0188827849BA090498
:10226000C07841EA02210843704700002DE9F0419F
:1022700016461F4604460D460022DFF850801346DE
:1022800030463946FEF792F917D100221346204610
:102290002946FEF7A3F903D240460D49BDE8F08177
:1022A0000022134620462946FEF780F902D2404616
:1022B0000849F3E700200146F0E732463B46204656
:1022C0002946BDE8F041FFF7F9BE0000023C71521B
:1022D000FB21F93FFB21F9BF0449054A0968B1FB1D
:1022E000F2F14143491EFDD270470000300000204A
:1022F00000093D002DE9FE437D4BA0F500027D491C
:102300000A2464260B259A421CD2FDF72FFFFEF704
:1023100025F9B0FBF4F104FB11018DF80910B0FBB5
:10232000F4F1B1FBF4F2B0FBF6F004FB12118DF8FE
:102330000810B0FBF4F104FB11008DF807008DF8D4
:10234000065028E06C4A4FF47A770244B2F1D47F09
:1023500024D2FDF70BFFFEF701F9B0FBF4F104FB0B
:1023600011018DF80910B0FBF4F1B1FBF4F204FB9C
:1023700012118DF80810B0FBF6F1B1FBF4F2B0FBCE
:10238000F7F004FB12118DF80710B0FBF4F104FB19
:1023900011008DF806008DF8055031E0554A42F2E3
:1023A000107852420244B2F1D97F2CD2FDF7DEFE02
:1023B000FEF7D4F8B0FBF4F104FB11018DF809101D
:1023C000B0FBF4F1B1FBF4F204FB12118DF808102C
:1023D000B0FBF6F1B1FBF4F204FB12118DF807101B
:1023E000B0FBF7F1B1FBF4F2B0FBF8F004FB121113
:1023F0008DF80610B0FBF4F104FB11008DF8050018
:102400008DF8045037E03D4A3D4B02449A4232D2A7
:10241000FDF7ACFEFEF7A2F8B0FBF4F104FB1101EE
:102420008DF80910B0FBF4F1B1FBF4F204FB1211CA
:102430008DF80810B0FBF6F1B1FBF4F204FB1211B9
:102440008DF80710B0FBF7F1B1FBF4F204FB1211A9
:102450008DF80610B0FBF8F1B1FBF4F204FB121199
:102460008DF805102749B0FBF1F0B0FBF4F104FB47
:1024700011008DF80400244C02232246012110464D
:10248000FFF70BFBC02022460090022301211046DB
:10249000FFF7DCFA2246022301211046FFF702FA79
:1024A000002501AF194E01E0032D1AD0785D305C94
:1024B00000900223204622460121FFF7C7FA02239B
:1024C000204622460121FFF7EDF96D1CEDB2062DE5
:1024D000EAD30223204622460121FFF7F3FABDE8A2
:1024E000FE839DF80700305C40F08000E0E70000CC
:1024F0000000A0400000C8420000E0BE000086BB13
:10250000003CA201A0860100000C0140182900082F
:102510002DE9FF410F460A9C80461D461646234979
:102520002046FDF723FEFEF719F80A21B0FBF1F271
:1025300001FB12028DF80D20B0FBF1F2B2FBF1F3BA
:1025400001FB13228DF80C206422B0FBF2F2B2FBE7
:10255000F1F301FB13228DF80B204FF47A72B0FBDC
:10256000F2F2B2FBF1F301FB13228DF80A2042F2E2
:102570001072B0FBF2F0B0FBF1F201FB12008DF82B
:10258000090014F1FF4F01D30C2000E00B208DF85F
:102590000800062102A8CDE900012B463246394643
:1025A0004046FFF7A1F9BDE8FF81000000401C464E
:1025B00010B5002821D0114B0022001F196803E03C
:1025C000814203D80A4649680029F9D152B11368FB
:1025D000841A9C4204D1006818441060104602E03E
:1025E000506000E0186039B102680B1A934203D1C1
:1025F0000B681A4402604968416010BD3400002035
:102600001CB5FEF741FBFFF71DF9FFF78BF8FFF74D
:10261000D5F8FFF7F5F8012278497948FEF7E4FF8D
:10262000DFF8E0A102235246564601211046FFF78B
:10263000D5F93246402320211046FFF7CFF9724FDB
:1026400002233A4601211046FFF7C8F906246F4DD0
:10265000CDE900543246022301211046FFF784F9E8
:10266000CDE900543246402320211046FFF77CF983
:10267000CDE900543A46022301211046FFF774F9D0
:102680000522691F012000F00FF94FF47A60FEF770
:10269000E1F95F48416A0A0110D5416A41F0807151
:1026A0004162BFF34F8F5B4801685B4A01F4E06110
:1026B00011430160BFF34F8F00BFFDE7FEF7D6FA6D
:1026C000524C1D3C6168401AB0F5FA7FF6D3FEF714
:1026D000CDFA524D60602946A068FDF779FDFDF7FF
:1026E00051FF804689462946E068FDF771FDFDF7F8
:1026F00049FF06460F4602460B4640464946FFF74D
:10270000B5FD474A474BFDF7BAFE0022464BFDF7A1
:1027100044FE002204460D461346FDF747FF07D24C
:102720000022424B20462946FDF790FD04460D4607
:10273000DFF8F8B000225B4620462946FDF74EFF41
:102740000ED200223A4B20462946FDF72FFF07D82C
:1027500000225B4620462946FDF719FE04460D4639
:10276000DFF8CCB000225B4620462946FDF736FF55
:102770000ED200222F4B20462946FDF717FF07D81F
:1027800000225B4620462946FDF701FE04460D4621
:10279000DFF8A0B000225B4620462946FDF71EFF69
:1027A0000ED20022244B20462946FDF7FFFE07D813
:1027B00000225B4620462946FDF7E9FD04460D460A
:1027C00040464946FDF722FF524600900223D0467C
:1027D00001211046FFF79CFE30463946FDF716FFF3
:1027E00042460090402320211046FFF791FE2046EC
:1027F0002946FDF70BFFFFF77DFD5FE74000002056
:102800003C01002000080140000C01401D00002098
:10281000001002400CED00E00400FA0500007A44CC
:102820001E264454FB21094000806640008076400B
:102830000080864000E0904000809640F0B50B306C
:10284000154D20F007010024144A0FE003688B4265
:102850000BD38B4205D95E1A43184768C3E900675A
:1028600000E04368136002C004E0021D1068002805
:10287000ECD12046002802D1286808B10020F0BD24
:10288000064A07481060074A121A22F00702C0E9F8
:10289000002401202860D7E7380000203400002001
:1028A000CC010020C80300202DE9F0478046D01C51
:1028B000C7B27D1D164689462846FFF7BFFF47224F
:1028C000027042708770012180F803800446017114
:1028D0000520002107E000BF19F801202254401C08
:1028E000491CC0B2C9B2B142F6D3B7212154401C31
:1028F000C0B274212154401CC0B22A4621544FF06A
:10290000FF3321460348FEF7B1FE2046BDE8F047FD
:10291000FFF74EBE3C0100203F065B4F666D7D0712
:102920007F6F8000400000000000000000010203F3
:10293000040607080900000000010203040000006B
:102940004FBB610567ACDD3F182D4454FB21E93FC7
:102950009BF681D20B73EF3F182D4454FB21F93FB6
:10296000E2652F227F2B7A3C075C143326A6813C3C
:10297000BDCBF07A8807703C075C143326A6913CE7
:10298000C4EB98999999C9BF711623FEC671BCBF53
:102990006D9A74AFF2B0B3BF9AFDDE522DDEADBFBB
:1029A0002F6C6A2C44B4A2BF0D5555555555D53FD3
:1029B000FF8300922449C23F6E204CC5CD45B73FEE
:1029C000513DD0A0660DB13FEB0D76244B7BA93F66
:1029D00011DA22E33AAD903F000000000000000051
:1029E000002A00080000002040000000701E0008BF
:1029F000402A00084000002088070000801E0008D0
:102A000000000000000000000000000000000000C6
:102A100000000000000000001F00000FA00C0C0CC4
:102A20000C0C0C0001000000100000000000000071
:102A30000024F4000000000000000000000000007E
:04000005080000ED02
:00000001FF
